:1000000002C1000030C100002EC100002CC1000060
:100010002AC1000028C1000026C1000024C1000040
:1000200022C1000020C100001EC100001CC1000050
:100030001AC1000018C1000016C1000014C1000060
:1000400012C10000DFC700000EC100000CC100009B
:100050000AC1000008C1000006C1000002C700007C
:1000600002C10000C8C600009DC60000FCC0000020
:10007000FAC00000F8C00000F6C00000F4C00000A4
:1000800094C70000F0C00000EEC00000ECC000000B
:10009000EAC00000E8C00000E6C00000E4C00000C4
:1000A000E2C00000E0C0000053C70000DCC0000058
:1000B000DAC00000D8C00000D6C000001CC7000095
:1000C000D2C00000D0C00000CEC00000CCC00000F4
:1000D000CAC00000C8C00000C6C00000C4C0000004
:1000E000C2C0000000002100240027002A002D00CB
:1000F0003000330001010000040107010A01000083
:100100002200250028002B002E00310034000201BF
:100110000000050108010B0100000A0B02090C0D8B
:100120000E080703040100000000000000000000AA
:1001300000000000000000000000000000000000BF
:10014000000000001211100000000000000000007C
:10015000000000000000000000000000000000009F
:1001600020002300260029002C002F00320000016F
:10017000000003010601090105050505070508083A
:100180000808020202020A0A080804040404010121
:100190000101010101010303030303030303040736
:1001A00007070C0C0C0C0C0C0C0C020202020606CD
:1001B0000606060606060B0B0B0B0B0B0B0B0102C0
:1001C0001020200808102040102040800201020169
:1001D0000804020101020408102040808040201021
:1001E000080402018004020180402010080402017A
:1001F00008040201010204081020408001020408E2
:1002000010204080740811241FBECFEFD1E2DEBF62
:10021000CDBF00E00CBF12E0A0E0B2E0E6E8FFE1F5
:1002200000E00BBF02C007900D92AE3AB107D9F7BC
:1002300024E0AEEAB2E001C01D92A132B207E1F7BC
:1002400011E0C3E0D1E000E006C021970109802F52
:10025000FE010E94B90FC230D10780E00807A9F75C
:10026000CCD70C94C10FCCCE8F929F92AF92BF92FD
:10027000FF920F931F93CF93DF93F09006042FE22A
:100280002F1508F44CC02091080408E512E0021B69
:10029000110927FD1395000F111F000F111F209149
:1002A0000704C8E8D0E0C21BD10927FDD395CC0FC5
:1002B000DD1FCC0FDD1F4E010D2E000CAA08BB0860
:1002C0009801012E000C440B550B281939094A09D5
:1002D0005B09DC010E94F10D24EB30E040E050E0CE
:1002E0000E94CB0D820E931EA41EB51E8C169D0679
:1002F0002CF0E801801691060CF4E4012297CC0F53
:10030000DD1F2FB7F8948F2D90E0FC01EE0FFF1F3B
:10031000E80FF91FEB58FC4FD283C1832FBFDF9149
:10032000CF911F910F91FF90BF90AF909F908F90B2
:100330000895AF92BF92CF92DF92EF92FF920F9308
:100340001F93CF93DF936C017B018B01040F151F6B
:10035000EB015E01AE18BF08C017D10759F06991D3
:10036000D601ED91FC910190F081E02DC601199527
:10037000892B79F7C501DF91CF911F910F91FF90E4
:10038000EF90DF90CF90BF90AF900895FC01538D18
:10039000448D252F30E0842F90E0821B930B54175F
:1003A00010F0CF96089501970895FC01918D828DEC
:1003B000981761F0A28DAE0FBF2FB11D5D968C9185
:1003C000928D9F5F9F73928F90E008958FEF9FEFC4
:1003D0000895FC01918D828D981731F0828DE80F80
:1003E000F11D858D90E008958FEF9FEF0895FC013A
:1003F000918D228D892F90E0805C9F4F821B910907
:100400008F739927089588ED92E0F1DF21E0892B21
:1004100009F420E0822F0895FC01A48DA80FB92FC4
:10042000B11DA35ABF4F2C91848D90E001968F731C
:100430009927848FA689B7892C93A089B1898C913B
:10044000837080648C93938D848D981306C002888A
:10045000F389E02D80818F7D80830895EF92FF9254
:100460000F931F93CF93DF93EC0181E0888F9B8DD7
:100470008C8D98131AC0E889F989808185FF15C091
:100480009FB7F894EE89FF896083E889F9898081B4
:100490008370806480839FBF81E090E0DF91CF9183
:1004A0001F910F91FF90EF900895F62E0B8D10E0A5
:1004B0000F5F1F4F0F731127E02E8C8D8E110BC015
:1004C0000FB607FCFACFE889F989808185FFF5CF5F
:1004D000CE01A2DFF2CFEB8DEC0FFD2FF11DE35A21
:1004E000FF4FF0829FB7F8940B8FEA89FB898081D8
:1004F0008062D0CFCF93DF93EC01888D8823B1F059
:10050000AA89BB89E889F9898C9185FD03C080811E
:1005100086FD0CC00FB607FCF7CF8C9185FFF2CF9C
:10052000808185FFEDCFCE0177DFEACFDF91CF91DC
:10053000089580E090E0892B21F065DF81110E9411
:10054000000080E090E0892B49F080E090E0892B6A
:1005500029F00E94000081110E94000080E090E0DC
:10056000892B49F080E090E0892B29F00E9400005F
:1005700081110E94000080E090E0892B49F080E02A
:1005800090E0892B29F00E94000081110C9400005A
:1005900008958150823108F05AC0E82FF0E0882792
:1005A000EB52FD4F8F4F0C94B90FF502F902E702A1
:1005B000ED02F1022703FC02020306030C03100301
:1005C00014031A031E032703220328032C0380911C
:1005D00080008F77809380000895809180008F7DC8
:1005E000F9CF80918000877FF5CF84B58F7784BD68
:1005F000089584B58F7DFBCF8091B0008F77809375
:10060000B00008958091B0008F7DF9CF8091900067
:100610008F77809390000895809190008F7DF9CF1F
:1006200080919000877FF5CF8091A0008F77809395
:10063000A00008958091A0008F7DF9CF8091A00047
:10064000877FF5CF809120018F77809320010895D7
:10065000809120018F7DF9CF80912001877FF5CF98
:10066000CF93DF93282F30E0F901E85EFE4F8491AD
:10067000F901E254FE4FD491F901E858FE4FC491BC
:10068000CC2399F0811185DFEC2FF0E0EE0FFF1FF6
:10069000E25AFE4FA591B491EC91ED2381E090E0F8
:1006A00009F480E0DF91CF91089580E090E0FACFE7
:1006B0001F93CF93DF93282F30E0F901E85EFE4FC0
:1006C0008491F901E254FE4FD491F901E858FE4FAC
:1006D000C491CC23A1F0162F81115BDFEC2FF0E049
:1006E000EE0FFF1FE250FF4FA591B4918FB7F89422
:1006F000EC91111108C0D095DE23DC938FBFDF9100
:10070000CF911F910895DE2BF8CFCF93DF9390E028
:10071000FC01E254FE4F249188589E4FFC018491C5
:100720008823D1F090E0880F991FFC01EC51FF4F16
:10073000A591B491FC01E250FF4FC591D491611194
:100740000EC09FB7F8948C91E22FE0958E238C9386
:100750002881E223E8839FBFDF91CF9108958FB76F
:10076000F894EC91E22BEC938FBFF6CF3FB7F8945F
:100770008091B3029091B402A091B502B091B602FB
:1007800026B5A89B05C02F3F19F00196A11DB11DEC
:100790003FBFBA2FA92F982F8827BC01CD01620F28
:1007A000711D811D911D42E0660F771F881F991FE3
:1007B0004A95D1F708958F929F92AF92BF92CF92B0
:1007C000DF92EF92FF924B015C01D0DF6B017C0165
:1007D000CDDF6C197D098E099F09683E7340810544
:1007E0009105B0F321E0821A9108A108B10888EEC2
:1007F000C80E83E0D81EE11CF11C81149104A104F1
:10080000B10431F7FF90EF90DF90CF90BF90AF90A1
:100810009F908F900895AF92BF92CF92DF92EF9208
:10082000FF920F931F93CF93DF936B017A01EC013B
:10083000C255DD4F28813CE0389F8001399F100D63
:100840001124A0900504B12C27FF1FC0FB011182C9
:10085000108288818F5F888388819801280F311DDD
:1008600087FD3A95F6012A153B051CF488818C30EA
:10087000BCF180819181049680349C4908F471C058
:10088000F6018081918104966EC088819801280FBD
:10089000311D87FD3A952A153B05DCF68881A801B4
:1008A000480F511D87FD5A95FA01EE0FFF1FE40F07
:1008B000F51FEB58FC4F808186FFCBCF8881F80174
:1008C000E80FF11D87FDFA95CF01EE0FFF1FE80F2E
:1008D000F91FEB58FC4F808160E08F73E9DEB9CFE0
:1008E000808191812881A801420F511D27FD5A95D1
:1008F0009A01FA01EE0FFF1FE20FF31FEB58FC4FB6
:1009000021813281820F931FF70191838083888137
:100910009801280F311D87FD3A95F901EE0FFF1F51
:10092000E20FF31FEB58FC4F808186FF21C08881C6
:10093000080F111D87FD1A95F801EE0FFF1FE00F3C
:10094000F11FEB58FC4F808161E08F73DF91CF91F5
:100950001F910F91FF90EF90DF90CF90BF90AF90DD
:10096000A7CE80E49CE9F701918380838FEF888391
:10097000DF91CF911F910F91FF90EF90DF90CF907B
:10098000BF90AF900895089590E080E0089582E8C8
:1009900090E06ADC68EE73E080E090E00CDF90E0CD
:1009A00080E062CC8CE390E05FDC68EE73E080E096
:1009B00090E001DF90E080E057CCCF93DF93EC0133
:1009C00060E08E8175DE61E08E8172DE60E08E8196
:1009D0006FDE8BE891E00197F1F7DF91CF910895F9
:1009E000CF92DF92EF92FF920F931F93CF93DF93FB
:1009F0006C017C0187E0E80EF11CD0E0C0E0062F1E
:100A000010E0B8010C2E02C0759567950A94E2F7C4
:100A10006170F70181917F014BDE2196C430D105D1
:100A200081F7C601DF91CF911F910F91FF90EF9059
:100A3000DF90CF90C2CFCF92DF92EF92FF920F93D1
:100A40001F93CF93DF93EC01F62E642F8C8130DE61
:100A50008D818F3F11F060E02BDE0F2D10E08F8530
:100A600084FF23C06E0187E0C80ED11CF12CE12C5D
:100A7000B8010E2C02C0759567950A94E2F7617073
:100A8000F60181916F0114DEFFEFEF1AFF0A88E093
:100A9000E816F10469F7CE01DF91CF911F910F9114
:100AA000FF90EF90DF90CF9088CFB80184E07595EC
:100AB00067958A95E1F7CE0193DF6F2DCE01DF9127
:100AC000CF911F910F91FF90EF90DF90CF9088CF43
:100AD00040E0682F89E094E0AECF81E0F9DF8BE35E
:100AE0009FE10197F1F70895CF93DF93823029F4C6
:100AF0009091180498609093180480931C041092AD
:100B00001D0480E480931E0480E180931F0480E52F
:100B10008093200461E080910D04F7DD80910E0444
:100B20008F3F11F061E0F1DD61E080910F04EDDDB8
:100B3000C9E0D4E09E01295034408091180484FD1E
:100B40000AC084E090E02196281739073CF461E060
:100B50008E81DBDDEFCF88E090E0F5CF8BE39DE089
:100B60000197F1F760E080910D04A2DD60E08091D3
:100B70000F049EDD80910E048F3F11F060E098DD40
:100B80008091180484FD2CC063E089E094E028DFA4
:100B9000CBE4D6E4CE010197F1F763E089E094E07D
:100BA0001FDF2197F1F763E089E094E019DF83E527
:100BB00092E00197F1F762E089E094E011DF809123
:100BC0001804806285DF84E0809319048CE080DF64
:100BD00084DF82E080931A0486E0DF91CF9178CFA2
:100BE000806276DF8BE496E40197F1F78091180438
:100BF00080626EDF83E592E00197F1F7809118043F
:100C0000806266DFDCCF90911C04691710F06FEFF3
:100C1000690FE62FF0E0E75FFB4F9489890F80684A
:100C200057CF41E008DF81E090E008950F931F93D4
:100C3000462F90E0FC01E254FE4F6491FC01E8581D
:100C4000FE4FE4914111462FF0E0EE0FFF1FE25AF4
:100C5000FE4F8591949100E412E42FE030E0FFD143
:100C6000611571058105910529F06F5F7F4F8F4FE9
:100C70009F4F9F701F910F910895FB0101900020DD
:100C8000E9F73197AF01461B570BDC01ED91FC9161
:100C90000280F381E02D19948F929F92AF92BF92C0
:100CA000EF92FF920F931F93CF93DF93CDB7DEB7F1
:100CB000A1970FB6F894DEBF0FBECDBF7C01FA013D
:100CC000CB0119A2223008F42AE08E010F5D1F4FDC
:100CD000822E912CB12CA12CBF01A501940187D7A4
:100CE000F901CA016A3004F5605DD8016E938D0187
:100CF000232B242B252B81F790E080E0109719F00F
:100D0000BD01C701BADFA1960FB6F894DEBF0FBED2
:100D1000CDBFDF91CF911F910F91FF90EF90BF90CA
:100D2000AF909F908F900895695CDFCFCF92DF9254
:100D3000EF92FF920F931F93CF93DF936B01770F87
:100D4000EE08FF08F7FE1EC0EC01E881F981019072
:100D5000F081E02D6DE219958C0144275527BA01E9
:100D60004C195D096E097F092AE0CE0195DF800FDD
:100D7000911FDF91CF911F910F91FF90EF90DF9026
:100D8000CF9008952AE0B701A601DF91CF911F917E
:100D90000F91FF90EF90DF90CF907ECFBC0189E064
:100DA00094E06BCF1F920F920FB60F9211240BB6E7
:100DB0000F922F933F934F935F936F937F938F93F4
:100DC0009F93AF93BF93EF93FF9388ED92E024DB63
:100DD000FF91EF91BF91AF919F918F917F916F9113
:100DE0005F914F913F912F910F900BBE0F900FBECF
:100DF0000F901F9018951F920F920FB60F9211240B
:100E00000BB60F922F938F939F93EF93FF93E091E5
:100E1000E802F091E9028081E091EE02F091EF02A8
:100E200082FD1DC090818091F1028F5F8F732091B0
:100E3000F202821741F0E091F102F0E0E852FD4F3A
:100E4000958F8093F102FF91EF919F918F912F9158
:100E50000F900BBE0F900FBE0F901F9018958081C2
:100E6000F2CF1F920F920FB60F9211242F933F9340
:100E70008F939F93AF93BF938091C4029091C502CB
:100E8000A091C602B091C7023091B20223E0230FB5
:100E90002D3758F50196A11DB11D2093B202809304
:100EA000C4029093C502A093C602B093C70280917A
:100EB000B3029091B402A091B502B091B60201962E
:100EC000A11DB11D8093B3029093B402A093B5020B
:100ED000B093B602BF91AF919F918F913F912F91A7
:100EE0000F900FBE0F901F90189526E8230F0296C3
:100EF000A11DB11DD2CF1F920F920FB60F921124D8
:100F00000BB60F922F933F934F935F936F937F9303
:100F10008F939F93AF93BF93EF93FF9348E251E07A
:100F200064E271E090E080E076DCFF91EF91BF91A8
:100F3000AF919F918F917F916F915F914F913F9171
:100F40002F910F900BBE0F900FBE0F901F90189512
:100F50001F920F920FB60F9211240BB60F922F9380
:100F60003F934F935F936F937F938F939F93AF9331
:100F7000BF93EF93FF9348EA50E064EA70E083E0A8
:100F800090E049DCFF91EF91BF91AF919F918F91DC
:100F90007F916F915F914F913F912F910F900BBE79
:100FA0000F900FBE0F901F9018951F920F920FB6C3
:100FB0000F9211240BB60F922F933F934F935F9391
:100FC0006F937F938F939F93AF93BF93EF93FF9311
:100FD00048E950E064E970E082E090E01CDCFF91B9
:100FE000EF91BF91AF919F918F917F916F915F91A1
:100FF0004F913F912F910F900BBE0F900FBE0F900E
:101000001F9018951F920F920FB60F9211240BB6D6
:101010000F922F933F934F935F936F937F938F9391
:101020009F93AF93BF93EF93FF9348E850E064E83A
:1010300070E081E090E0EFDBFF91EF91BF91AF9125
:101040009F918F917F916F915F914F913F912F91E0
:101050000F900BBE0F900FBE0F901F901895CF9260
:10106000DF92EF92FF920F931F93E82FF92F05C0A5
:10107000015011092109310961F1908196239417DA
:10108000B9F305C0015011092109310911F190810D
:1010900096239413F7CFC12CD12CE12CF12C0AC04C
:1010A0008FEFC81AD80AE80AF80A0C151D052E0594
:1010B0003F0579F080818623841791F36C2D7D2D77
:1010C0008E2D9F2D1F910F91FF90EF90DF90CF906D
:1010D000089560E070E080E090E01F910F91FF9034
:1010E000EF90DF90CF900895CF931092DB02109293
:1010F000DA0288EE93E0A0E0B0E08093DC02909307
:10110000DD02A093DE02B093DF0284E092E09093D0
:10111000D9028093D80285EC90E09093E502809309
:10112000E40284EC90E09093E7028093E60280EC86
:1011300090E09093E9028093E80281EC90E0909334
:10114000EB028093EA0282EC90E09093ED028093B0
:10115000EC0286EC90E09093EF028093EE02109206
:10116000F1021092F2021092F3021092F402109225
:101170000C0410920B0486E192E090930A04809391
:10118000090487E180930D04CFEFC0930E0489E139
:1011900080930F0486E18093100488E1809311040A
:1011A0008AE1809312048CE180931304109214045A
:1011B000109215041092160410921704109218043D
:1011C00081E092DC809105048033A0F491E0980FD7
:1011D000909305048093060490E0FC01EE0FFF1F3E
:1011E000E80FF91FEB58FC4F88EB9BE0928381835B
:1011F000CF910895C0930604FBCF789484B58260A4
:1012000084BD84B5816084BD85B5826085BD85B5AA
:10121000816085BD80916E00816080936E00109228
:1012200081008091810082608093810080918100A3
:101230008160809381008091800081608093800034
:101240008091B10084608093B1008091B000816092
:101250008093B00080919100826080939100809192
:1012600091008160809391008091900081608093D3
:1012700090008091A10082608093A1008091A100E4
:1012800081608093A1008091A00081608093A00084
:1012900080912101826080932101809121018160F0
:1012A00080932101809120018160809320018091B1
:1012B0007A00846080937A0080917A0082608093C3
:1012C0007A0080917A00816080937A0080917A0020
:1012D000806880937A001092C10080910604803368
:1012E00008F050C061E088E210DA80910604282FEF
:1012F00030E0F901EE0FFF1FE20FF31FEB58FC4F38
:101300009081907C98629083109207041092080458
:101310002CE0622F22D6829FB001112430E020E021
:10132000AB01420F531FFA01EE0FFF1FE40FF51F31
:10133000EB58FC4F908196FD17C02F5F3F4F2C302C
:10134000310571F7813009F02EC31092800082E0E0
:10135000809381001092850010928400B19A809150
:101360006F00826080936F00E09106048E2F90E002
:10137000FC01EE0FFF1FE80FF91FEB58FC4F8081B7
:101380008064808390E080E00E94340161E084E02A
:10139000BCD961E085E0B9D961E086E0B6D961E009
:1013A00087E0B3D960E088E0B0D960E083E2ADD9EE
:1013B00061E084E07DD960E085E07AD961E082E097
:1013C000A4D960E083E0A1D9E091E802F091E902BC
:1013D00082E08083E091E402F091E5021082E091E6
:1013E000E602F091E7028FEC80831092F002E09128
:1013F000EC02F091ED0286E08083E091EA02F09148
:10140000EB02808180618083E091EA02F091EB023F
:10141000808188608083E091EA02F091EB02808114
:1014200080688083E091EA02F091EB0280818F7DF9
:10143000808382E059DB3324339402E010E0C3E080
:10144000D0E0AA24A394B12C98EE492E93E0592E13
:10145000612C712C24E0822E912C2FB7F89480916E
:10146000C4029091C502A091C602B091C7022FBFDD
:101470008093D4029093D502A093D602B093D70262
:1014800060E086E015D960E087E012D988E0E8D80E
:1014900061E0019709F460E088E0C8DB7093BA026C
:1014A0006093B90260E086E003D961E087E000D98B
:1014B00088E0D6D861E0019709F460E088E0B6DB07
:1014C0007093B8026093B70261E086E0F1D861E002
:1014D00087E0EED888E0C4D861E0019709F460E0C5
:1014E00088E0A4DB2091B9023091BA028091B70262
:1014F0009091B802281739070CF081C226173707D8
:1015000044F4861797070CF087C2B092BF02A092EE
:10151000BE0260E082E0CCD8CE010197F1F761E035
:1015200082E0C6D883E290E00197F1F761E083E0C2
:101530007DDBFAD320E030E040E05FE3ABD42DEC7C
:101540003CEC48EE51E488D36B017C0120E030E0B4
:1015500048E251E49BD418160CF067C21092C10205
:101560001092C0021092BF021092BE021092BB02F3
:1015700064EF71E080E090E01ED98091C00290910C
:10158000C1028230910509F4BEC28330910509F48D
:10159000D4C20197B9F48091BE029091BF0282300B
:1015A000910509F4BEC28330910509F4D4C20197B4
:1015B00049F48091C8029091C90201969093C902A2
:1015C0008093C80283E24CD89093D3028093D202D6
:1015D00061E070E080E090E0EED86EE172E088EDCE
:1015E00092E04BDB65E272E088ED92E046DBC09072
:1015F000D202D090D3020D2C000CEE08FF082AE096
:10160000B701A601F7FE0DC06DE288ED92E00E94E1
:101610002E0244275527BA014C195D096E097F092E
:101620002AE088ED92E038DB65E272E088ED92E036
:1016300024DB8091D0029091D102892BA1F460E04B
:1016400080E0E1DA88E292E0A9DB88E141DA80918A
:10165000D2029091D3028130910529F49093D10266
:101660008093D0023ADA8091D0029091D102019712
:1016700009F049C060E080E0C6DA82E492E08EDBE7
:1016800060E085E1C0DA6091C2027091C30289E036
:1016900094E04CDB88E11CDA61E087E0B4DA88E5AD
:1016A00092E07CDB8091D2029091D302892B09F0E9
:1016B0005EC28091D4029091D502A091D602B091E1
:1016C000D7024091CC025091CD026091CE02709130
:1016D000CF026C017D01C41AD50AE60AF70AB701E8
:1016E000A60140365A4E6105710568F01093D1028B
:1016F0000093D0028093CC029093CD02A093CE02AF
:10170000B093CF02EAD98091D0029091D102029792
:1017100009F068C060E080E076DA8BE592E03EDBBD
:1017200060E085E170DA6091CA027091CB0289E0D5
:1017300094E0FCDA60E087E166DA81E792E02EDB94
:1017400088E1C6D961E084E05EDA6091D4027091EC
:10175000D5028091D6029091D702C090CC02D09051
:10176000CD02E090CE02F090CF026C197D098E0977
:101770009F09A30192013BD2BA01A9012AE089E0A5
:1017800094E08ADA61E087E03EDA8EE792E006DBF9
:101790008091D4029091D502A091D602B091D70247
:1017A0004091CC025091CD026091CE027091CF0257
:1017B0006C017D01C41AD50AE60AF70AB701A60131
:1017C00040365A4E6105710568F08093CC029093C3
:1017D000CD02A093CE02B093CF02D093D102C0939A
:1017E000D0027BD98091D0029091D102039709F069
:1017F00068C060E080E007DA82E892E0CFDA60E07B
:1018000085E101DA6091C8027091C90289E094E033
:101810008DDA60E087E1F7D981E792E0BFDA88E10D
:1018200057D961E084E0EFD96091D4027091D5027C
:101830008091D6029091D702C090CC02D090CD0278
:10184000E090CE02F090CF026C197D098E099F09BD
:10185000A3019201CCD1BA01A9012AE089E094E068
:101860001BDA61E087E0CFD98EE792E097DA8091CA
:10187000D4029091D502A091D602B091D7024091A6
:10188000CC025091CD026091CE027091CF026C01DA
:101890007D01C41AD50AE60AF70AB701A601403647
:1018A0005A4E6105710568F08093CC029093CD0289
:1018B000A093CE02B093CF029092D1028092D00238
:1018C0000CD98091D0029091D102049709F068C0A0
:1018D00060E080E098D988E992E060DA60E085E134
:1018E00092D96091CA027091CB0289E094E01EDA2D
:1018F00060E087E188D981E792E050DA88E1E8D8B2
:1019000061E084E080D96091D4027091D502809129
:10191000D6029091D702C090CC02D090CD02E09038
:10192000CE02F090CF026C197D098E099F09A301A8
:1019300092015DD1BA01A9012AE089E094E0ACD915
:1019400061E087E060D98EE792E028DA8091D402E6
:101950009091D502A091D602B091D7024091CC02CD
:101960005091CD026091CE027091CF026C017D0149
:10197000C41AD50AE60AF70AB701A60140365A4E3C
:101980006105710568F08093CC029093CD02A0931D
:10199000CE02B093CF021092D1021092D0029DD805
:1019A0000E9499025ACD823061F410929000809387
:1019B0009100109295001092940088BB8093710062
:1019C000D3CC833069F41092A00082E08093A10010
:1019D0001092A5001092A40089BB80937200C4CC21
:1019E0008111C2CC1092200182E0809321011092DB
:1019F0002501109224018ABB80937300B5CC821715
:101A000093070CF086CD861797070CF082CD1093C4
:101A1000BF020093BE027DCD681779070CF079CD27
:101A2000D093BF02C093BE0274CD20E030E048E204
:101A300051E4C701B6010CD187FF1DC020E030E0A2
:101A400040EF50E4C701B60121D21816A4F48091EA
:101A5000BB02811110C08091C2029091C302019615
:101A60009093C3028093C202B092C102A092C002BE
:101A70003092BB027DCD20E030E040EF50E4C70162
:101A8000B601E6D087FF1BC020E030E040E950E41B
:101A9000C701B601FBD1181694F48091BB028111E5
:101AA0000EC08091C2029091C30201969093C3022E
:101AB0008093C2021093C1020093C002D9CF20E0EC
:101AC00030E0A901C701B601E1D118160CF050CDE4
:101AD00020E030E040E950E4C701B601B9D087FF0B
:101AE00047CD8091BB02811143CDD093C102C093F9
:101AF000C0028091C2029091C30201969093C302EA
:101B00008093C202B5CF8091BE029091BF02823015
:101B1000910509F18330910509F44BCD019709F046
:101B200051CD8091CA029091CB0201969093CB0245
:101B30008093CA020E94D20445CD8091BE0290914A
:101B4000BF028230910509F434CD8330910549F309
:101B5000019709F037CD8091BC029091BD020196AA
:101B60009093BD028093BC020E94C7042BCD2FB777
:101B7000F8948091C4029091C502A091C602B091E0
:101B8000C7022FBF8093CC029093CD02A093CE02C8
:101B9000B093CF02B8CD052E97FB16F400940FD06A
:101BA00057FD05D024D007FC02D046F408C050955C
:101BB0004095309521953F4F4F4F5F4F0895909539
:101BC0008095709561957F4F8F4F9F4F089531D0CD
:101BD000A59F900DB49F900DA49F800D911D112481
:101BE0000895B7FFF4CFF3DF821B930B0895A1E2B2
:101BF0001A2EAA1BBB1BFD010DC0AA1FBB1FEE1F87
:101C0000FF1FA217B307E407F50720F0A21BB30BD1
:101C1000E40BF50B661F771F881F991F1A9469F74D
:101C200060957095809590959B01AC01BD01CF01A9
:101C30000895A29FB001B39FC001A39F700D811DA5
:101C40001124911DB29F700D811D1124911D0895C5
:101C5000A8D008F481E008950CD0DEC0D6D040F0C2
:101C6000CDD030F021F45F3F19F0BFC0511108C151
:101C7000C2C0E3D098F39923C9F35523B1F3951B60
:101C8000550BBB27AA2762177307840738F09F5F9D
:101C90005F4F220F331F441FAA1FA9F333D00E2E0C
:101CA0003AF0E0E830D091505040E695001CCAF779
:101CB00029D0FE2F27D0660F771F881FBB1F26173E
:101CC00037074807AB07B0E809F0BB0B802DBF0111
:101CD000FF2793585F4F2AF09E3F510568F085C05B
:101CE000CFC05F3FECF3983EDCF386957795679520
:101CF000B795F7959F5FC9F7880F911D96958795C2
:101D000097F90895E1E0660F771F881FBB1F6217E0
:101D100073078407BA0720F0621B730B840BBA0B9E
:101D2000EE1F88F7E0950895E89409C097FB3EF40C
:101D300090958095709561957F4F8F4F9F4F992318
:101D4000A9F0F92F96E9BB279395F6958795779596
:101D50006795B795F111F8CFFAF4BB0F11F460FF56
:101D60001BC06F5F7F4F8F4F9F4F16C0882311F0AE
:101D700096E911C0772321F09EE8872F762F05C0C2
:101D8000662371F096E8862F70E060E02AF09A955D
:101D9000660F771F881FDAF7880F9695879597F952
:101DA0000895990F0008550FAA0BE0E8FEEF1616EC
:101DB0001706E807F907C0F012161306E407F5073F
:101DC00098F0621B730B840B950B39F40A2661F0B3
:101DD000232B242B252B21F408950A2609F4A14056
:101DE000A6958FEF811D811D089597F99F6780E863
:101DF00070E060E008959FEF80EC089500240A945D
:101E00001616170618060906089500240A941216D5
:101E10001306140605060895092E0394000C11F408
:101E2000882352F0BB0F40F4BF2B11F460FF04C0B5
:101E30006F5F7F4F8F4F9F4F089557FD9058440F0E
:101E4000551F59F05F3F71F04795880F97FB991F19
:101E500061F09F3F79F087950895121613061406D6
:101E6000551FF2CF4695F1DF08C016161706180663
:101E7000991FF1CF86957105610508940895E8943E
:101E8000BB2766277727CB0197F908958ADF08F4E7
:101E90008FEF08950BD0C0CFB1DF28F0B6DF18F078
:101EA000952309F0A2CFA7CF1124EACFC6DFA0F374
:101EB000959FD1F3950F50E0551F629FF001729FDF
:101EC000BB27F00DB11D639FAA27F00DB11DAA1FFE
:101ED000649F6627B00DA11D661F829F2227B00D4B
:101EE000A11D621F739FB00DA11D621F839FA00DD6
:101EF000611D221F749F3327A00D611D231F849F26
:101F0000600D211D822F762F6A2F11249F5750407C
:101F10008AF0E1F088234AF0EE0FFF1FBB1F661F17
:101F2000771F881F91505040A9F79E3F510570F0D0
:101F30005CCFA6CF5F3FECF3983EDCF386957795B8
:101F40006795B795F795E7959F5FC1F7FE2B880FCB
:101F5000911D9695879597F90895991B79E004C08E
:101F6000991F961708F0961B881F7A95C9F78095D8
:101F70000895EE0FFF1F881F8BBF0790F691E02D8D
:061F80001994F894FFCF54
:101F8600000000002E029901C6017A02F701D50170
:101F9600E9010000000011069901C404C304737727
:101FA60069746368000D0A00214731312D5345439A
:101FB60043494F4E2D41212D5052414354494341EF
:101FC60032004731312D544F54414C2050524F442A
:101FD6005543544F53202D003A2900C2BF3A47318A
:101FE600312D526563697069656E74652031202DE7
:101FF6000050726F647563746F73202426007365D6
:102006006700C2BF3A4731312D5265636970696511
:102016006E74652032202D00C2BF3A4731312D52F1
:0E2026006563697069656E74652033202D0056
:00000001FF
