:1000000002C1000031C100002FC100002DC100005D
:100010002BC1000029C1000027C1000025C100003C
:1000200023C1000021C100001FC100001DC100004C
:100030001BC1000019C1000017C1000015C100005C
:1000400013C100000C94CE080FC100000DC10000C8
:100050000BC1000009C1000007C10000CEC70000AD
:1000600003C1000094C7000069C70000FDC0000084
:10007000FBC00000F9C00000F7C00000F5C00000A0
:100080000C94A108F1C00000EFC00000EDC000001A
:10009000EBC00000E9C00000E7C00000E5C00000C0
:1000A000E3C00000E1C000000C947408DDC0000053
:1000B000DBC00000D9C00000D7C00000E8C70000C6
:1000C000D3C00000D1C00000CFC00000CDC00000F0
:1000D000CBC00000C9C00000C7C00000C5C0000000
:1000E000C3C0000000002100240027002A002D00CA
:1000F0003000330001010000040107010A01000083
:100100002200250028002B002E00310034000201BF
:100110000000050108010B0100000A0B02090C0D8B
:100120000E080703040100000000000000000000AA
:1001300000000000000000000000000000000000BF
:10014000000000001211100000000000000000007C
:10015000000000000000000000000000000000009F
:1001600020002300260029002C002F00320000016F
:10017000000003010601090105050505070508083A
:100180000808020202020A0A080804040404010121
:100190000101010101010303030303030303040736
:1001A00007070C0C0C0C0C0C0C0C020202020606CD
:1001B0000606060606060B0B0B0B0B0B0B0B0102C0
:1001C0001020200808102040102040800201020169
:1001D0000804020101020408102040808040201021
:1001E000080402018004020180402010080402017A
:1001F00008040201010204081020408001020408E2
:1002000010204080400911241FBECFEFD1E2DEBF95
:10021000CDBF00E00CBF13E0A0E0B2E0EEE5F0E2FD
:1002200000E00BBF02C007900D92A237B107D9F7CB
:1002300024E0A2E7B3E001C01D92AF3DB207E1F7B1
:1002400011E0C3E0D1E000E006C021970109802F52
:10025000FE010E942510C230D10780E00807A9F7EF
:100260000E94C9090C942D10CBCE8F929F92AF9211
:10027000BF92FF920F931F93CF93DF93F090C4042C
:100280002FE22F1508F44CC02091C60408E512E0B7
:10029000021B110927FD1395000F111F000F111FDD
:1002A0002091C504C8E8D0E0C21BD10927FDD39531
:1002B000CC0FDD1FCC0FDD1F4E010D2E000CAA0848
:1002C000BB089801012E000C440B550B2819390965
:1002D0004A095B09DC010E94C80D24EB30E040E0D4
:1002E00050E00E94A20D820E931EA41EB51E8C1615
:1002F0009D062CF0E801801691060CF4E40122978B
:10030000CC0FDD1F2FB7F8948F2D90E0FC01EE0F7E
:10031000FF1FE80FF91FED5CFB4FD283C1832FBF96
:10032000DF91CF911F910F91FF90BF90AF909F9061
:100330008F900895AF92BF92CF92DF92EF92FF928B
:100340000F931F93CF93DF936C017B018B01040FFD
:10035000151FEB015E01AE18BF08C017D10759F099
:100360006991D601ED91FC910190F081E02DC601DB
:100370001995892B79F7C501DF91CF911F910F91C5
:10038000FF90EF90DF90CF90BF90AF900895FC0169
:10039000538D448D252F30E0842F90E0821B930BEA
:1003A000541710F0CF96089501970895FC01918D90
:1003B000828D981761F0A28DAE0FBF2FB11D5D9693
:1003C0008C91928D9F5F9F73928F90E008958FEF35
:1003D0009FEF0895FC01918D828D981731F0828DE9
:1003E000E80FF11D858D90E008958FEF9FEF089540
:1003F000FC01918D228D892F90E0805C9F4F821BA4
:1004000091098F739927089586E993E0F1DF21E040
:10041000892B09F420E0822F0895FC01A48DA80FF8
:10042000B92FB11DA35ABF4F2C91848D90E0019636
:100430008F739927848FA689B7892C93A089B18956
:100440008C91837080648C93938D848D981306C0F7
:100450000288F389E02D80818F7D80830895EF925B
:10046000FF920F931F93CF93DF93EC0181E0888F6E
:100470009B8D8C8D98131AC0E889F989808185FF3E
:1004800015C09FB7F894EE89FF896083E889F989E0
:1004900080818370806480839FBF81E090E0DF91E2
:1004A000CF911F910F91FF90EF900895F62E0B8D35
:1004B00010E00F5F1F4F0F731127E02E8C8D8E11F0
:1004C0000BC00FB607FCFACFE889F989808185FF58
:1004D000F5CFCE01A2DFF2CFEB8DEC0FFD2FF11D9A
:1004E000E35AFF4FF0829FB7F8940B8FEA89FB899C
:1004F00080818062D0CFCF93DF93EC01888D8823F9
:10050000B1F0AA89BB89E889F9898C9185FD03C07E
:10051000808186FD0CC00FB607FCF7CF8C9185FF5C
:10052000F2CF808185FFEDCFCE0177DFEACFDF917B
:10053000CF91089580E090E0892B21F065DF811153
:100540000E94000080E090E0892B49F080E090E07C
:10055000892B29F00E94000081110E94000080E098
:1005600090E0892B49F080E090E0892B29F00E94EF
:10057000000081110E94000080E090E0892B49F08A
:1005800080E090E0892B29F00E94000081110C94FA
:10059000000008958150823108F05AC0E82FF0E041
:1005A0008827EA52FD4F8F4F0C942510F602FA026D
:1005B000E802EE02F2022803FD02030307030D0323
:1005C000110315031B031F032803230329032D0312
:1005D000809180008F7780938000089580918000C3
:1005E0008F7DF9CF80918000877FF5CF84B58F779D
:1005F00084BD089584B58F7DFBCF8091B0008F7747
:100600008093B00008958091B0008F7DF9CF8091E4
:1006100090008F77809390000895809190008F7D57
:10062000F9CF80919000877FF5CF8091A0008F77E0
:100630008093A00008958091A0008F7DF9CF8091D4
:10064000A000877FF5CF809120018F7780932001D4
:100650000895809120018F7DF9CF80912001877FBF
:10066000F5CFCF93DF93282F30E0F901E85EFE4FFE
:100670008491F901E254FE4FD491F901E858FE4FFC
:10068000C491CC2399F0811185DFEC2FF0E0EE0FBF
:10069000FF1FE25AFE4FA591B491EC91ED2381E04A
:1006A00090E009F480E0DF91CF91089580E090E040
:1006B000FACF1F93CF93DF93282F30E0F901E85E44
:1006C000FE4F8491F901E254FE4FD491F901E858AC
:1006D000FE4FC491CC23A1F0162F81115BDFEC2FCC
:1006E000F0E0EE0FFF1FE250FF4FA591B4918FB7DE
:1006F000F894EC91111108C0D095DE23DC938FBFE4
:10070000DF91CF911F910895DE2BF8CFCF93DF9328
:1007100090E0FC01E254FE4F249188589E4FFC016A
:1007200084918823D1F090E0880F991FFC01EC514F
:10073000FF4FA591B491FC01E250FF4FC591D491B8
:1007400061110EC09FB7F8948C91E22FE0958E2333
:100750008C932881E223E8839FBFDF91CF91089596
:100760008FB7F894EC91E22BEC938FBFF6CF3FB7A5
:10077000F8948091770390917803A0917903B091D8
:100780007A0326B5A89B05C02F3F19F00196A11D3D
:10079000B11D3FBFBA2FA92F982F8827BC01CD01CB
:1007A000620F711D811D911D42E0660F771F881F2A
:1007B000991F4A95D1F708958F929F92AF92BF9259
:1007C000CF92DF92EF92FF924B015C01D0DF6B0181
:1007D0007C01CDDF6C197D098E099F09683E73404D
:1007E00081059105B0F321E0821A9108A108B108B2
:1007F00088EEC80E83E0D81EE11CF11C8114910420
:10080000A104B10431F7FF90EF90DF90CF90BF903B
:10081000AF909F908F900895AF92BF92CF92DF924A
:10082000EF92FF920F931F93CF93DF936B017A01A7
:10083000EC01CE58DC4F28813CE0389F8001399F85
:10084000100D1124A090C304B12C27FF1FC0FB0181
:100850001182108288818F5F888388819801280F98
:10086000311D87FD3A95F6012A153B051CF4888158
:100870008C30BCF180819181049680349C4908F4CD
:1008800071C0F6018081918104966EC088819801C3
:10089000280F311D87FD3A952A153B05DCF6888126
:1008A000A801480F511D87FD5A95FA01EE0FFF1F51
:1008B000E40FF51FED5CFB4F808186FFCBCF888175
:1008C000F801E80FF11D87FDFA95CF01EE0FFF1F2C
:1008D000E80FF91FED5CFB4F808160E08F73E9DE6C
:1008E000B9CF808191812881A801420F511D27FD38
:1008F0005A959A01FA01EE0FFF1FE20FF31FED5C0C
:10090000FB4F21813281820F931FF70191838083F6
:1009100088819801280F311D87FD3A95F901EE0F66
:10092000FF1FE20FF31FED5CFB4F808186FF21C0AC
:100930008881080F111D87FD1A95F801EE0FFF1F22
:10094000E00FF11FED5CFB4F808161E08F73DF9161
:10095000CF911F910F91FF90EF90DF90CF90BF90BC
:10096000AF90A7CE80E49CE9F701918380838FEF5D
:100970008883DF91CF911F910F91FF90EF90DF90CF
:10098000CF90BF90AF900895089590E080E00895D3
:100990000F931F93462F90E0FC01E254FE4F6491A9
:1009A000FC01E858FE4FE4914111462FF0E0EE0FB4
:1009B000FF1FE25AFE4F8591949100E412E42FE06C
:1009C00030E019D4611571058105910529F06F5F3B
:1009D0007F4F8F4F9F4F9F701F910F910895CF931F
:1009E000DF93EC0160E08E8164DE61E08E8161DE88
:1009F00060E08E815EDE8BE891E00197F1F7DF9198
:100A0000CF910895CF92DF92EF92FF920F931F93B1
:100A1000CF93DF936C017C0187E0E80EF11CD0E0FE
:100A2000C0E0062F10E0B8010C2E02C07595679546
:100A30000A94E2F76170F70181917F013ADE219615
:100A4000C430D10581F7C601DF91CF911F910F917D
:100A5000FF90EF90DF90CF90C2CFCF92DF92EF92D6
:100A6000FF920F931F93CF93DF93EC01F62E642F29
:100A70008C811FDE8D818F3F11F060E01ADE0F2D1B
:100A800010E08F8584FF23C06E0187E0C80ED11C63
:100A9000F12CE12CB8010E2C02C0759567950A94D3
:100AA000E2F76170F60181916F0103DEFFEFEF1A4B
:100AB000FF0A88E0E816F10469F7CE01DF91CF91D3
:100AC0001F910F91FF90EF90DF90CF9088CFB801EA
:100AD00084E0759567958A95E1F7CE0193DF6F2DD8
:100AE000CE01DF91CF911F910F91FF90EF90DF909A
:100AF000CF9088CF40E0682F87EC94E0AECFCF93C3
:100B0000DF93823029F49091D60498609093D604B4
:100B10008093DA041092DB0480E48093DC0480E1AB
:100B20008093DD0480E58093DE0461E08091CB0456
:100B3000EDDD8091CC048F3F11F061E0E7DD61E0F5
:100B40008091CD04E3DDC7ECD4E09E01275C344006
:100B50008091D60484FD0AC084E090E02196281795
:100B600039073CF461E08E81D1DDEFCF88E090E081
:100B7000F5CF8BE39DE00197F1F760E08091CB0426
:100B800098DD60E08091CD0494DD8091CC048F3FAE
:100B900011F060E08EDD8091D60484FD31C063E009
:100BA00087EC94E02FDFCBE4D6E4CE010197F1F798
:100BB00063E087EC94E026DF2197F1F763E087ECB0
:100BC00094E020DF83E592E00197F1F762E087ECA3
:100BD00094E018DF8091D60480628CDF84E08093FB
:100BE000D7048CE087DF81E085DF8BE39FE101970D
:100BF000F1F782E08093D80486E0DF91CF917ACF3D
:100C0000806278DF8BE496E40197F1F78091D60457
:100C1000806270DF83E592E00197F1F78091D6045E
:100C2000806268DFD7CF9091DA04691710F06FEF18
:100C3000690FE62FF0E0E953FB4F9489890F806834
:100C400059CF41E00ADF81E090E00895FB01019077
:100C50000020E9F73197AF01461B570BDC01ED91FE
:100C6000FC910280F381E02D19948F929F92AF92B4
:100C7000BF92EF92FF920F931F93CF93DF93CDB765
:100C8000DEB7A1970FB6F894DEBF0FBECDBF7C01D3
:100C9000FA01CB0119A2223008F42AE08E010F5D7F
:100CA0001F4F822E912CB12CA12CBF01A5019401C4
:100CB00075D7F901CA016A3004F5605DD8016E93F9
:100CC0008D01232B242B252B81F790E080E01097BA
:100CD00019F0BD01C701BADFA1960FB6F894DEBFC7
:100CE0000FBECDBFDF91CF911F910F91FF90EF907D
:100CF000BF90AF909F908F900895695CDFCFCF92A7
:100D0000DF92EF92FF926B017C0141E06DE287EC94
:100D100094E0A3DE44275527BA014C195D096E09FA
:100D20007F092AE087EC94E0A0DF0196FF90EF9026
:100D3000DF90CF900895BC0187EC94E087CFCF93EC
:100D4000DF93BC0186E993E081DFEC016EE172E0A4
:100D500086E993E07BDF8C0F9D1FDF91CF91089593
:100D600081E292E0ECDF82E890E07FDA68EE73E007
:100D700080E090E021DD90E080E077CA8DE392E0B2
:100D8000DEDF8CE390E071DA68EE73E080E090E003
:100D900013DD90E080E069CA4F925F926F927F927C
:100DA0008F929F92AF92BF92CF92DF92EF92FF927B
:100DB0000F931F93CF936B017C01742EAC019B01A9
:100DC0000E94151069E572E0811125C046015701A6
:100DD000E894B7F82FEF3FEF4FE75FE7C501B401A5
:100DE0000E94151081110BC02FEF3FEF4FE75FE717
:100DF000C501B40169D76DE572E0181664F02FEFF4
:100E00003FEF4FE75FE4C701B6010E94AE0F18162F
:100E1000A4F461E672E086E993E0CF911F910F910F
:100E2000FF90EF90DF90CF90BF90AF909F908F900A
:100E30007F906F905F904F9009CF2FEF3FEF4FE77C
:100E40005FECC701B60140D787FDE3CF20E030E07B
:100E5000A901C701B60138D710E000E087FF09C03B
:100E60006DE286E993E0FBDA8C01F7FAF094F7F88B
:100E7000F094C0E060E070E080E09FE37C1639F021
:100E800020E030E040E251E423D7CF5FF7CFA70165
:100E90009601B6D62B013C0183D74B015C012AE0B9
:100EA000BC01A40186E993E0E0DE7C01E00EF11EC6
:100EB000CC2399F1C501B4019FD79B01AC01C301BB
:100EC000B2019DD64B015C016EE286E993E0C7DA80
:100ED000E80EF91EC15008F120E030E040E251E494
:100EE000C501B4010E94B20F2B013C0159D74B013F
:100EF000B12CA12C2AE0B501A40186E993E0B5DE6E
:100F0000E80EF91EC501B40177D79B01AC01C301FE
:100F1000B20175D64B015C01DDCFC701CF911F91A6
:100F20000F91FF90EF90DF90CF90BF90AF909F9088
:100F30008F907F906F905F904F9008951F920F92C7
:100F40000FB60F9211240BB60F922F933F934F932E
:100F50005F936F937F938F939F93AF93BF93EF9321
:100F6000FF9386E993E059DAFF91EF91BF91AF913A
:100F70009F918F917F916F915F914F913F912F91B1
:100F80000F900BBE0F900FBE0F901F9018951F92E1
:100F90000F920FB60F9211240BB60F922F938F93CF
:100FA0009F93EF93FF93E091A603F091A7038081B5
:100FB000E091AC03F091AD0382FD1DC09081809162
:100FC000AF038F5F8F732091B003821741F0E091E0
:100FD000AF03F0E0EA56FC4F958F8093AF03FF918B
:100FE000EF919F918F912F910F900BBE0F900FBE9D
:100FF0000F901F9018958081F2CF1F920F920FB61D
:101000000F9211242F933F938F939F93AF93BF938E
:1010100080917B0390917C03A0917D03B0917E032E
:101020003091760323E0230F2D3758F50196A11D4B
:10103000B11D2093760380937B0390937C03A09350
:101040007D03B0937E038091770390917803A09104
:101050007903B0917A030196A11DB11D80937703A6
:1010600090937803A0937903B0937A03BF91AF91E3
:101070009F918F913F912F910F900FBE0F901F90D6
:10108000189526E8230F0296A11DB11DD2CF1F92FD
:101090000F920FB60F9211240BB60F922F933F931E
:1010A0004F935F936F937F938F939F93AF93BF9370
:1010B000EF93FF9348E251E064E271E090E080E05A
:1010C000ABDBFF91EF91BF91AF919F918F917F919A
:1010D0006F915F914F913F912F910F900BBE0F90A9
:1010E0000FBE0F901F9018951F920F920FB60F9280
:1010F00011240BB60F922F933F934F935F936F93EF
:101100007F938F939F93AF93BF93EF93FF9348EA9F
:1011100050E064EA70E083E090E07EDBFF91EF91C5
:10112000BF91AF919F918F917F916F915F914F91FF
:101130003F912F910F900BBE0F900FBE0F901F90FD
:1011400018951F920F920FB60F9211240BB60F92A3
:101150002F933F934F935F936F937F938F939F93BF
:10116000AF93BF93EF93FF9348E950E064E970E0D9
:1011700082E090E051DBFF91EF91BF91AF919F91A1
:101180008F917F916F915F914F913F912F910F9030
:101190000BBE0F900FBE0F901F9018951F920F92CD
:1011A0000FB60F9211240BB60F922F933F934F93CC
:1011B0005F936F937F938F939F93AF93BF93EF93BF
:1011C000FF9348E850E064E870E081E090E024DBC1
:1011D000FF91EF91BF91AF919F918F917F916F910F
:1011E0005F914F913F912F910F900BBE0F900FBECB
:1011F0000F901F901895CF92DF92EF92FF920F936E
:101200001F93E82FF92F05C0015011092109310959
:1012100061F1908196239417B9F305C0015011092B
:101220002109310911F1908196239413F7CFC12C34
:10123000D12CE12CF12C0AC08FEFC81AD80AE80A89
:10124000F80A0C151D052E053F0579F080818623CF
:10125000841791F36C2D7D2D8E2D9F2D1F910F9155
:10126000FF90EF90DF90CF90089560E070E080E015
:1012700090E01F910F91FF90EF90DF90CF90089535
:10128000CF93109299031092980388EE93E0A0E018
:10129000B0E080939A0390939B03A0939C03B09338
:1012A0009D0384E092E0909397038093960385ECEE
:1012B00090E09093A3038093A20384EC90E090933A
:1012C000A5038093A40380EC90E09093A703809300
:1012D000A60381EC90E09093A9038093A80382EC8D
:1012E00090E09093AB038093AA0386EC90E09093F8
:1012F000AD038093AC031092AF031092B003109231
:10130000B1031092B2031092CA041092C90486E18C
:1013100092E09093C8048093C70487E18093CB0444
:10132000CFEFC093CC0489E18093CD0486E1809314
:10133000CE0488E18093CF048AE18093D0048CE1CD
:101340008093D1041092D2041092D3041092D4044A
:101350001092D5041092D60481E0D1DB8091C304B1
:101360008033A0F491E0980F9093C3048093C40459
:1013700090E0FC01EE0FFF1FE80FF91FED5CFB4F43
:1013800088EB9BE092838183CF910895C093C4043E
:10139000FBCF789484B5826084BD84B5816084BDC0
:1013A00085B5826085BD85B5816085BD80916E0003
:1013B000816080936E001092810080918100826034
:1013C0008093810080918100816080938100809171
:1013D00080008160809380008091B1008460809360
:1013E000B1008091B00081608093B0008091910045
:1013F0008260809391008091910081608093910040
:10140000809190008160809390008091A100826023
:101410008093A1008091A10081608093A1008091C0
:10142000A00081608093A000809121018260809360
:10143000210180912101816080932101809120010F
:1014400081608093200180917A00846080937A008B
:1014500080917A00826080937A0080917A00816026
:1014600080937A0080917A00806880937A0010924D
:10147000C1008091C404803308F050C061E088E26C
:1014800045D98091C404282F30E0F901EE0FFF1FE9
:10149000E20FF31FED5CFB4F9081907C986290838C
:1014A0001092C5041092C6042CE0622FC2D5829F10
:1014B000B001112430E020E0AB01420F531FFA01CC
:1014C000EE0FFF1FE40FF51FED5CFB4F908196FDC3
:1014D00017C02F5F3F4F2C30310571F7813009F075
:1014E0003DC11092800082E08093810010928500BF
:1014F00010928400B19A80916F00826080936F0097
:10150000E091C4048E2F90E0FC01EE0FFF1FE80F66
:10151000F91FED5CFB4F80818064808390E080E068
:101520000E94350161E084E0F1D861E085E0EED809
:1015300061E086E0EBD861E087E0E8D860E088E031
:10154000E5D861E084E0B5D860E085E0B2D861E03C
:1015500082E0DCD860E083E0D9D8E091A603F09186
:10156000A70382E08083E091A203F091A30310829D
:10157000E091A403F091A5038FEC80831092AE0359
:10158000E091AA03F091AB0386E08083E091A80389
:10159000F091A903808180618083E091A803F0919C
:1015A000A903808188608083E091A803F091A9035A
:1015B000808180688083E091A803F091A9038081F5
:1015C0008F7D808382E09BDA60E080E02CDB85E623
:1015D00092E0B1DB61E080E026DB85E792E0ABDB07
:1015E0003324339482E0A82EB12CC3E0D0E001E094
:1015F00010E09BE3892E9FE1992E8FB7F8944090DD
:101600007B0350907C0360907D0370907E038FBFBE
:1016100060E086E04ED860E087E04BD888E021D8D3
:1016200061E0019709F460E088E0B2D97093820329
:101630006093810360E086E03CD861E087E039D8C0
:1016400088E00FD861E0019709F460E088E0A0D954
:101650007093800360937F0361E086E02AD861E0A5
:1016600087E027D888E00E94310361E0019709F400
:1016700060E088E08DD920918103309182038091D0
:101680007F0390918003281739070CF093C0261729
:1016900037075CF4861797070CF09CC08FE792E041
:1016A0004EDB109385030093840360E082E001D851
:1016B000CE010197F1F761E082E00E94590383E2D5
:1016C00090E00197F1F761E083E062D995D320E0E3
:1016D00030E040E05FE346D42DEC3CEC48EE51E4D2
:1016E000F7D26B017C0142E057DB8DEA92E027DB09
:1016F00020E030E048E251E4C701B6012FD41816CB
:101700000CF074C081EB92E01ADB42E0C701B60135
:1017100043DB6EE172E086E993E098DA109287038A
:101720001092860310928503109284031092830313
:1017300064EF71E080E090E03FD880918603909163
:1017400087038130910509F495C10CF0C6C0892B3F
:1017500009F0CAC085EF92E0F2DAC6C0823061F4C7
:101760001092900080939100109295001092940036
:1017700088BB80937100C4CE833069F41092A000BE
:1017800082E08093A1001092A5001092A40089BB72
:1017900080937200B5CE8111B3CE1092200182E009
:1017A0008093210110922501109224018ABB80931D
:1017B0007300A6CE821793070CF077CF8617970792
:1017C0000CF073CF8DE892E0BADAB0928503A09264
:1017D00084036BCF681779070CF067CF8BE992E031
:1017E000AEDAD0938503C09384035FCF20E030E06E
:1017F00048E251E4C701B60167D287FF20C020E06C
:1018000030E040EF50E4C701B601A8D31816BCF48D
:1018100080918303811113C08EEC92E090DA809165
:10182000880390918903019690938903809388039C
:1018300010938703009386033092830379CF20E0CF
:1018400030E040EF50E4C701B6013ED287FF1EC032
:1018500020E030E040E950E4C701B6017FD318161C
:10186000ACF480918303811111C08CED92E067DAB2
:1018700080918803909189030196909389038093C6
:101880008803B0928703A0928603D6CF20E030E091
:10189000A901C701B60162D318160CF049CF20E0A8
:1018A00030E040E950E4C701B6010ED287FF40CFD7
:1018B0008091830381113CCF89EE92E040DAD0938E
:1018C0008703C093860380918803909189030196D2
:1018D0009093890380938803AFCF8230910509F4F8
:1018E000E3C0039709F4FBC080E292E028DA80911C
:1018F000920390919303A0919403B0919503A30157
:101900009201281B390B4A0B5B0BDA01C9018036A7
:101910009A4EA105B10508F4AAC080919003909158
:1019200091030196853091050CF0F3C090939103DB
:101930008093900381E0DED8C4010197F1F7809194
:101940009003909191030197F1F460E080E06BD9EE
:1019500083E293E0F0D960E086E165D940918803A5
:1019600050918903052E000C660B770B77FFD6C0CC
:10197000CB01BA01C4D988E1BDD861E087E053D971
:1019800088E393E0D8D980919003909191030297D6
:10199000F1F460E080E047D98BE393E0CCD960E0DC
:1019A00086E141D940918A0350918B03052E000CAA
:1019B000660B770B77FFB7C0CB01BA01A0D988E1DE
:1019C00099D861E087E02FD988E393E0B4D980917A
:1019D0009003909191030397F1F460E080E023D9A4
:1019E0008DE493E0A8D960E086E11DD940918C0395
:1019F00050918D03052E000C660B770B77FF98C076
:101A0000CB01BA017CD988E175D861E087E00BD9B8
:101A100088E393E090D9809190039091910304978B
:101A2000F1F460E080E0FFD88FE593E084D960E0D6
:101A300086E1F9D840918E0350918F03052E000C5A
:101A4000660B770B77FF79C0CB01BA0158D988E1D3
:101A500051D861E087E0E7D888E393E06CD9409201
:101A600092035092930360929403709295030E94A4
:101A70009A02C3CD809184039091850381309105B2
:101A800011F10CF464CE82309105C1F1039709F095
:101A90002BCF80918E0390918F03019690938F03AB
:101AA00080938E035DD920CF80918403909185032C
:101AB0008130910519F10CF44ACE8230910549F339
:101AC000039709F011CF80918C0390918D030196BB
:101AD00090938D0380938C0387E093E03DCE8091BB
:101AE0008403909185038130910599F20CF42FCEF7
:101AF0008230910541F3039709F0F6CE80918A0375
:101B000090918B03019690938B0380938A0336D92F
:101B1000EBCE10939103009390030CCF2AE087EC57
:101B200094E0A3D828CF2AE087EC94E09ED847CF52
:101B30002AE087EC94E099D866CF2AE087EC94E01D
:101B400094D885CF052E97FB16F400940FD057FD3F
:101B500005D024D007FC02D046F408C0509540952B
:101B6000309521953F4F4F4F5F4F08959095809549
:101B7000709561957F4F8F4F9F4F089531D0A59FEE
:101B8000900DB49F900DA49F800D911D1124089578
:101B9000B7FFF4CFF3DF821B930B0895A1E21A2E57
:101BA000AA1BBB1BFD010DC0AA1FBB1FEE1FFF1F01
:101BB000A217B307E407F50720F0A21BB30BE40B51
:101BC000F50B661F771F881F991F1A9469F7609598
:101BD0007095809590959B01AC01BD01CF01089552
:101BE000A29FB001B39FC001A39F700D811D11245E
:101BF000911DB29F700D811D1124911D08955058A3
:101C0000BB27AA270ED070C161D130F066D120F079
:101C100031F49F3F11F41EF456C10EF4E095E7FB3A
:101C20004CC1E92F72D180F3BA176207730784079A
:101C3000950718F071F49EF58AC10EF4E0950B2E0D
:101C4000BA2FA02D0B01B90190010C01CA01A0010E
:101C50001124FF27591B99F0593F50F4503E68F169
:101C60001A16F040A22F232F342F4427585FF3CFAA
:101C7000469537952795A795F0405395C9F77EF47B
:101C80001F16BA0B620B730B840BBAF09150A1F0C4
:101C9000FF0FBB1F661F771F881FC2F70EC0BA0F4A
:101CA000621F731F841F48F4879577956795B795D2
:101CB000F7959E3F08F0B3CF9395880F08F09927CA
:101CC000EE0F979587950895D4D008F481E0089594
:101CD0000CD00AC102D140F0F9D030F021F45F3FBE
:101CE00019F0EBC0511134C1EEC00FD198F3992314
:101CF000C9F35523B1F3951B550BBB27AA276217D0
:101D00007307840738F09F5F5F4F220F331F441F14
:101D1000AA1FA9F333D00E2E3AF0E0E830D091504C
:101D20005040E695001CCAF729D0FE2F27D0660F39
:101D3000771F881FBB1F261737074807AB07B0E878
:101D400009F0BB0B802DBF01FF2793585F4F2AF08E
:101D50009E3F510568F0B1C0FBC05F3FECF3983E79
:101D6000DCF3869577956795B795F7959F5FC9F7EB
:101D7000880F911D9695879597F90895E1E0660F74
:101D8000771F881FBB1F621773078407BA0720F0ED
:101D9000621B730B840BBA0BEE1F88F7E095089556
:101DA000BCD088F09F5790F0B92F9927B751A0F079
:101DB000D1F0660F771F881F991F1AF0BA95C9F7DF
:101DC00012C0B13081F0C3D0B1E00895C0C0672F18
:101DD000782F8827B85F39F0B93FCCF3869577958F
:101DE0006795B395D9F73EF4909580957095619578
:101DF0007F4F8F4F9F4F0895E89409C097FB3EF4A3
:101E000090958095709561957F4F8F4F9F4F992347
:101E1000A9F0F92F96E9BB279395F69587957795C5
:101E20006795B795F111F8CFFAF4BB0F11F460FF85
:101E30001BC06F5F7F4F8F4F9F4F16C0882311F0DD
:101E400096E911C0772321F09EE8872F762F05C0F1
:101E5000662371F096E8862F70E060E02AF09A958C
:101E6000660F771F881FDAF7880F9695879597F981
:101E70000895990F0008550FAA0BE0E8FEEF16161B
:101E80001706E807F907C0F012161306E407F5076E
:101E900098F0621B730B840B950B39F40A2661F0E2
:101EA000232B242B252B21F408950A2609F4A14085
:101EB000A6958FEF811D811D089597F99F6780E892
:101EC00070E060E008959FEF80EC089500240A948C
:101ED0001616170618060906089500240A94121605
:101EE0001306140605060895092E0394000C11F438
:101EF000882352F0BB0F40F4BF2B11F460FF04C0E5
:101F00006F5F7F4F8F4F9F4F089557FD9058440F3D
:101F1000551F59F05F3F71F04795880F97FB991F48
:101F200061F09F3F79F08795089512161306140605
:101F3000551FF2CF4695F1DF08C016161706180692
:101F4000991FF1CF86957105610508940895E8946D
:101F5000BB2766277727CB0197F908958ADF08F416
:101F60008FEF08950BD0C0CFB1DF28F0B6DF18F0A7
:101F7000952309F0A2CFA7CF1124EACFC6DFA0F3A3
:101F8000959FD1F3950F50E0551F629FF001729F0E
:101F9000BB27F00DB11D639FAA27F00DB11DAA1F2D
:101FA000649F6627B00DA11D661F829F2227B00D7A
:101FB000A11D621F739FB00DA11D621F839FA00D05
:101FC000611D221F749F3327A00D611D231F849F55
:101FD000600D211D822F762F6A2F11249F575040AC
:101FE0008AF0E1F088234AF0EE0FFF1FBB1F661F47
:101FF000771F881F91505040A9F79E3F510570F000
:102000005CCFA6CF5F3FECF3983EDCF386957795E7
:102010006795B795F795E7959F5FC1F7FE2B880FFA
:10202000911D9695879597F9089523DF880B990B55
:102030000895991B79E004C0991F961708F0961B24
:10204000881F7A95C9F780950895EE0FFF1F881FA6
:0E2050008BBF0790F691E02D1994F894FFCF06
:10205E00000000002F029A01C7017B02F801D60191
:10206E00EA010000000021069A01C504C4040D0A0D
:10207E00004D6F766572206D6F746F7220616C20EB
:10208E00726563697069656E74652033004D6F7695
:10209E006572206D6F746F7220616C20726563695A
:1020AE007069656E74652031006E616E00696E66D2
:1020BE00006F766600214731312D53454343494F1A
:1020CE004E2D412100505241435449434132004567
:1020DE007320636F6C6F7220726F6A6F004573208E
:1020EE00636F6C6F7220617A756C00457320636F3D
:1020FE006C6F7220616D6172696C6C6F0020636D24
:10210E00004E6F20686179206E61646120656E20DB
:10211E006C612062616E6461207061706900436160
:10212E006A61207065717565C3B1610043616A6152
:10213E00206D656469616E610043616A612067723A
:10214E00616E6465004E6F206D6F76657220656CF2
:10215E00206D6F746F72004D6F766572206D6F74A7
:10216E006F7220616C20726563697069656E74654B
:10217E002032004731312D544F54414C2050524F94
:10218E00445543544F532D003A29004731312D52B7
:10219E006563697069656E746520312D0047313154
:1021AE002D526563697069656E746520322D004726
:1021BE0031312D526563697069656E746520332DFA
:0221CE0000000F
:00000001FF
